:1000000001C0D9C0112480914000882369F0282FB5
:1000100030E083FD03C02C7F232B31F4809340001C
:100020008CBB80E0B0D0ECC0A895249A2C9A80E4D8
:100030008093E205809182128370813029F58CE5EE
:1000400090E0809368089093690881E080936B0842
:1000500083E0809367081092650880EC80936608BF
:1000600088E091D0079A87E0815089F4A8950DE93E
:1000700083E0D82E7CD08134F1F479D0182F8CD045
:10008000123889F480E013C083E790E0DACF179A42
:100090002EEC36E5A8959091640897FDE8CF2150A5
:1000A0003109C1F7E1CF89E0113809F083E058D078
:1000B00080E156D0DFCF823419F484E175D0F8CFD7
:1000C000853411F485E0FACF853531F450D0C82F4E
:1000D0004ED0D82F61D0ECCF863519F484E064D0AF
:1000E000D1CF8436B9F443D042D0182F40D08634D3
:1000F00079F4D05C3CD0888321961150D9F74CD04C
:1001000004BFD0920010809102108370E1F7D0CF2D
:10011000DC5EF0CF843791F42AD029D0182F27D075
:10012000F82E3AD086E4F81207C0D05C8881219678
:1001300017D01150D9F7BCCFDC5EF8CF853751F41A
:100140002BD0809100110CD08091011109D08091A9
:100150000211ADCF813509F0BDCF81E014D0BACF07
:100160009091640895FFFCCF809362080895809178
:10017000640887FFFCCF909161088091600892FD30
:1001800001C0A89508959091010190FDFCCF98EDD4
:1001900094BF809300010895EADF803219F081E076
:1001A000F2DFFFCF84E1DCCFCF93C82FE0DFC15077
:1001B000E9F7CF91F1CF683048F48DE984BF6093BF
:1001C0000010809102108370E1F70895FC014083D4
:0201D000089590
:0201FE000009F6
:00000001FF
